{
  "contractName": "Lena",
  "abi": [
    {
      "inputs": [],
      "stateMutability": "nonpayable",
      "type": "constructor"
    },
    {
      "anonymous": false,
      "inputs": [
        {
          "indexed": true,
          "internalType": "address",
          "name": "owner",
          "type": "address"
        },
        {
          "indexed": true,
          "internalType": "address",
          "name": "approved",
          "type": "address"
        },
        {
          "indexed": true,
          "internalType": "uint256",
          "name": "tokenId",
          "type": "uint256"
        }
      ],
      "name": "Approval",
      "type": "event"
    },
    {
      "anonymous": false,
      "inputs": [
        {
          "indexed": true,
          "internalType": "address",
          "name": "owner",
          "type": "address"
        },
        {
          "indexed": true,
          "internalType": "address",
          "name": "operator",
          "type": "address"
        },
        {
          "indexed": false,
          "internalType": "bool",
          "name": "approved",
          "type": "bool"
        }
      ],
      "name": "ApprovalForAll",
      "type": "event"
    },
    {
      "anonymous": false,
      "inputs": [
        {
          "indexed": true,
          "internalType": "address",
          "name": "previousOwner",
          "type": "address"
        },
        {
          "indexed": true,
          "internalType": "address",
          "name": "newOwner",
          "type": "address"
        }
      ],
      "name": "OwnershipTransferred",
      "type": "event"
    },
    {
      "anonymous": false,
      "inputs": [
        {
          "indexed": true,
          "internalType": "address",
          "name": "from",
          "type": "address"
        },
        {
          "indexed": true,
          "internalType": "address",
          "name": "to",
          "type": "address"
        },
        {
          "indexed": true,
          "internalType": "uint256",
          "name": "tokenId",
          "type": "uint256"
        }
      ],
      "name": "Transfer",
      "type": "event"
    },
    {
      "inputs": [
        {
          "internalType": "address",
          "name": "to",
          "type": "address"
        },
        {
          "internalType": "uint256",
          "name": "tokenId",
          "type": "uint256"
        }
      ],
      "name": "approve",
      "outputs": [],
      "stateMutability": "nonpayable",
      "type": "function"
    },
    {
      "inputs": [
        {
          "internalType": "address",
          "name": "owner",
          "type": "address"
        }
      ],
      "name": "balanceOf",
      "outputs": [
        {
          "internalType": "uint256",
          "name": "",
          "type": "uint256"
        }
      ],
      "stateMutability": "view",
      "type": "function",
      "constant": true
    },
    {
      "inputs": [
        {
          "internalType": "uint256",
          "name": "tokenId",
          "type": "uint256"
        }
      ],
      "name": "getApproved",
      "outputs": [
        {
          "internalType": "address",
          "name": "",
          "type": "address"
        }
      ],
      "stateMutability": "view",
      "type": "function",
      "constant": true
    },
    {
      "inputs": [
        {
          "internalType": "address",
          "name": "owner",
          "type": "address"
        },
        {
          "internalType": "address",
          "name": "operator",
          "type": "address"
        }
      ],
      "name": "isApprovedForAll",
      "outputs": [
        {
          "internalType": "bool",
          "name": "",
          "type": "bool"
        }
      ],
      "stateMutability": "view",
      "type": "function",
      "constant": true
    },
    {
      "inputs": [],
      "name": "name",
      "outputs": [
        {
          "internalType": "string",
          "name": "",
          "type": "string"
        }
      ],
      "stateMutability": "view",
      "type": "function",
      "constant": true
    },
    {
      "inputs": [],
      "name": "owner",
      "outputs": [
        {
          "internalType": "address",
          "name": "",
          "type": "address"
        }
      ],
      "stateMutability": "view",
      "type": "function",
      "constant": true
    },
    {
      "inputs": [
        {
          "internalType": "uint256",
          "name": "tokenId",
          "type": "uint256"
        }
      ],
      "name": "ownerOf",
      "outputs": [
        {
          "internalType": "address",
          "name": "",
          "type": "address"
        }
      ],
      "stateMutability": "view",
      "type": "function",
      "constant": true
    },
    {
      "inputs": [],
      "name": "renounceOwnership",
      "outputs": [],
      "stateMutability": "nonpayable",
      "type": "function"
    },
    {
      "inputs": [
        {
          "internalType": "address",
          "name": "from",
          "type": "address"
        },
        {
          "internalType": "address",
          "name": "to",
          "type": "address"
        },
        {
          "internalType": "uint256",
          "name": "tokenId",
          "type": "uint256"
        }
      ],
      "name": "safeTransferFrom",
      "outputs": [],
      "stateMutability": "nonpayable",
      "type": "function"
    },
    {
      "inputs": [
        {
          "internalType": "address",
          "name": "from",
          "type": "address"
        },
        {
          "internalType": "address",
          "name": "to",
          "type": "address"
        },
        {
          "internalType": "uint256",
          "name": "tokenId",
          "type": "uint256"
        },
        {
          "internalType": "bytes",
          "name": "_data",
          "type": "bytes"
        }
      ],
      "name": "safeTransferFrom",
      "outputs": [],
      "stateMutability": "nonpayable",
      "type": "function"
    },
    {
      "inputs": [
        {
          "internalType": "address",
          "name": "operator",
          "type": "address"
        },
        {
          "internalType": "bool",
          "name": "approved",
          "type": "bool"
        }
      ],
      "name": "setApprovalForAll",
      "outputs": [],
      "stateMutability": "nonpayable",
      "type": "function"
    },
    {
      "inputs": [
        {
          "internalType": "bytes4",
          "name": "interfaceId",
          "type": "bytes4"
        }
      ],
      "name": "supportsInterface",
      "outputs": [
        {
          "internalType": "bool",
          "name": "",
          "type": "bool"
        }
      ],
      "stateMutability": "view",
      "type": "function",
      "constant": true
    },
    {
      "inputs": [],
      "name": "symbol",
      "outputs": [
        {
          "internalType": "string",
          "name": "",
          "type": "string"
        }
      ],
      "stateMutability": "view",
      "type": "function",
      "constant": true
    },
    {
      "inputs": [
        {
          "internalType": "uint256",
          "name": "tokenId",
          "type": "uint256"
        }
      ],
      "name": "tokenURI",
      "outputs": [
        {
          "internalType": "string",
          "name": "",
          "type": "string"
        }
      ],
      "stateMutability": "view",
      "type": "function",
      "constant": true
    },
    {
      "inputs": [
        {
          "internalType": "address",
          "name": "from",
          "type": "address"
        },
        {
          "internalType": "address",
          "name": "to",
          "type": "address"
        },
        {
          "internalType": "uint256",
          "name": "tokenId",
          "type": "uint256"
        }
      ],
      "name": "transferFrom",
      "outputs": [],
      "stateMutability": "nonpayable",
      "type": "function"
    },
    {
      "inputs": [
        {
          "internalType": "address",
          "name": "newOwner",
          "type": "address"
        }
      ],
      "name": "transferOwnership",
      "outputs": [],
      "stateMutability": "nonpayable",
      "type": "function"
    }
  ],
  "bytecode": "0x60806040523480156200001157600080fd5b506040518060400160405280601081526020017f4e4654204c454e4120464f5245564552000000000000000000000000000000008152506040518060400160405280600481526020017f4c454e4100000000000000000000000000000000000000000000000000000000815250816000908051906020019062000096929190620004e7565b508060019080519060200190620000af929190620004e7565b505050620000d2620000c66200011360201b60201c565b6200011b60201b60201c565b620000fc6040518060a00160405280606281526020016200300a60629139620001e160201b60201c565b6200010c620001fd60201b60201c565b50620007d5565b600033905090565b6000600660009054906101000a900473ffffffffffffffffffffffffffffffffffffffff16905081600660006101000a81548173ffffffffffffffffffffffffffffffffffffffff021916908373ffffffffffffffffffffffffffffffffffffffff1602179055508173ffffffffffffffffffffffffffffffffffffffff168173ffffffffffffffffffffffffffffffffffffffff167f8be0079c531659141344cd1fd0a4f28419497f9722a3daafe3b4186f6b6457e060405160405180910390a35050565b8060079080519060200190620001f9929190620004e7565b5050565b600080600190505b6003811162000245576200022f620002226200024d60201b60201c565b826200027760201b60201c565b80806200023c90620006d7565b91505062000205565b506001905090565b6000600660009054906101000a900473ffffffffffffffffffffffffffffffffffffffff16905090565b600073ffffffffffffffffffffffffffffffffffffffff168273ffffffffffffffffffffffffffffffffffffffff161415620002ea576040517f08c379a0000000000000000000000000000000000000000000000000000000008152600401620002e19062000607565b60405180910390fd5b620002fb816200047160201b60201c565b156200033e576040517f08c379a00000000000000000000000000000000000000000000000000000000081526004016200033590620005e5565b60405180910390fd5b6200035260008383620004dd60201b60201c565b6001600360008473ffffffffffffffffffffffffffffffffffffffff1673ffffffffffffffffffffffffffffffffffffffff1681526020019081526020016000206000828254620003a491906200063a565b92505081905550816002600083815260200190815260200160002060006101000a81548173ffffffffffffffffffffffffffffffffffffffff021916908373ffffffffffffffffffffffffffffffffffffffff160217905550808273ffffffffffffffffffffffffffffffffffffffff16600073ffffffffffffffffffffffffffffffffffffffff167fddf252ad1be2c89b69c2b068fc378daa952ba7f163c4a11628f55a4df523b3ef60405160405180910390a46200046d60008383620004e260201b60201c565b5050565b60008073ffffffffffffffffffffffffffffffffffffffff166002600084815260200190815260200160002060009054906101000a900473ffffffffffffffffffffffffffffffffffffffff1673ffffffffffffffffffffffffffffffffffffffff1614159050919050565b505050565b505050565b828054620004f590620006a1565b90600052602060002090601f01602090048101928262000519576000855562000565565b82601f106200053457805160ff191683800117855562000565565b8280016001018555821562000565579182015b828111156200056457825182559160200191906001019062000547565b5b50905062000574919062000578565b5090565b5b808211156200059357600081600090555060010162000579565b5090565b6000620005a6601c8362000629565b9150620005b38262000783565b602082019050919050565b6000620005cd60208362000629565b9150620005da82620007ac565b602082019050919050565b60006020820190508181036000830152620006008162000597565b9050919050565b600060208201905081810360008301526200062281620005be565b9050919050565b600082825260208201905092915050565b6000620006478262000697565b9150620006548362000697565b9250827fffffffffffffffffffffffffffffffffffffffffffffffffffffffffffffffff038211156200068c576200068b62000725565b5b828201905092915050565b6000819050919050565b60006002820490506001821680620006ba57607f821691505b60208210811415620006d157620006d062000754565b5b50919050565b6000620006e48262000697565b91507fffffffffffffffffffffffffffffffffffffffffffffffffffffffffffffffff8214156200071a576200071962000725565b5b600182019050919050565b7f4e487b7100000000000000000000000000000000000000000000000000000000600052601160045260246000fd5b7f4e487b7100000000000000000000000000000000000000000000000000000000600052602260045260246000fd5b7f4552433732313a20746f6b656e20616c7265616479206d696e74656400000000600082015250565b7f4552433732313a206d696e7420746f20746865207a65726f2061646472657373600082015250565b61282580620007e56000396000f3fe608060405234801561001057600080fd5b50600436106101005760003560e01c8063715018a611610097578063b88d4fde11610066578063b88d4fde14610299578063c87b56dd146102b5578063e985e9c5146102e5578063f2fde38b1461031557610100565b8063715018a6146102375780638da5cb5b1461024157806395d89b411461025f578063a22cb4651461027d57610100565b806323b872dd116100d357806323b872dd1461019f57806342842e0e146101bb5780636352211e146101d757806370a082311461020757610100565b806301ffc9a71461010557806306fdde0314610135578063081812fc14610153578063095ea7b314610183575b600080fd5b61011f600480360381019061011a9190611a01565b610331565b60405161012c9190611dc1565b60405180910390f35b61013d610413565b60405161014a9190611ddc565b60405180910390f35b61016d60048036038101906101689190611a53565b6104a5565b60405161017a9190611d5a565b60405180910390f35b61019d600480360381019061019891906119c5565b61052a565b005b6101b960048036038101906101b491906118bf565b610642565b005b6101d560048036038101906101d091906118bf565b6106a2565b005b6101f160048036038101906101ec9190611a53565b6106c2565b6040516101fe9190611d5a565b60405180910390f35b610221600480360381019061021c919061185a565b610774565b60405161022e9190611fbe565b60405180910390f35b61023f61082c565b005b6102496108b4565b6040516102569190611d5a565b60405180910390f35b6102676108de565b6040516102749190611ddc565b60405180910390f35b61029760048036038101906102929190611989565b610970565b005b6102b360048036038101906102ae919061190e565b610986565b005b6102cf60048036038101906102ca9190611a53565b6109e8565b6040516102dc9190611ddc565b60405180910390f35b6102ff60048036038101906102fa9190611883565b610a8f565b60405161030c9190611dc1565b60405180910390f35b61032f600480360381019061032a919061185a565b610b23565b005b60007f80ac58cd000000000000000000000000000000000000000000000000000000007bffffffffffffffffffffffffffffffffffffffffffffffffffffffff1916827bffffffffffffffffffffffffffffffffffffffffffffffffffffffff191614806103fc57507f5b5e139f000000000000000000000000000000000000000000000000000000007bffffffffffffffffffffffffffffffffffffffffffffffffffffffff1916827bffffffffffffffffffffffffffffffffffffffffffffffffffffffff1916145b8061040c575061040b82610c1b565b5b9050919050565b606060008054610422906121e3565b80601f016020809104026020016040519081016040528092919081815260200182805461044e906121e3565b801561049b5780601f106104705761010080835404028352916020019161049b565b820191906000526020600020905b81548152906001019060200180831161047e57829003601f168201915b5050505050905090565b60006104b082610c85565b6104ef576040517f08c379a00000000000000000000000000000000000000000000000000000000081526004016104e690611f1e565b60405180910390fd5b6004600083815260200190815260200160002060009054906101000a900473ffffffffffffffffffffffffffffffffffffffff169050919050565b6000610535826106c2565b90508073ffffffffffffffffffffffffffffffffffffffff168373ffffffffffffffffffffffffffffffffffffffff1614156105a6576040517f08c379a000000000000000000000000000000000000000000000000000000000815260040161059d90611f7e565b60405180910390fd5b8073ffffffffffffffffffffffffffffffffffffffff166105c5610cf1565b73ffffffffffffffffffffffffffffffffffffffff1614806105f457506105f3816105ee610cf1565b610a8f565b5b610633576040517f08c379a000000000000000000000000000000000000000000000000000000000815260040161062a90611ebe565b60405180910390fd5b61063d8383610cf9565b505050565b61065361064d610cf1565b82610db2565b610692576040517f08c379a000000000000000000000000000000000000000000000000000000000815260040161068990611f9e565b60405180910390fd5b61069d838383610e90565b505050565b6106bd83838360405180602001604052806000815250610986565b505050565b6000806002600084815260200190815260200160002060009054906101000a900473ffffffffffffffffffffffffffffffffffffffff169050600073ffffffffffffffffffffffffffffffffffffffff168173ffffffffffffffffffffffffffffffffffffffff16141561076b576040517f08c379a000000000000000000000000000000000000000000000000000000000815260040161076290611efe565b60405180910390fd5b80915050919050565b60008073ffffffffffffffffffffffffffffffffffffffff168273ffffffffffffffffffffffffffffffffffffffff1614156107e5576040517f08c379a00000000000000000000000000000000000000000000000000000000081526004016107dc90611ede565b60405180910390fd5b600360008373ffffffffffffffffffffffffffffffffffffffff1673ffffffffffffffffffffffffffffffffffffffff168152602001908152602001600020549050919050565b610834610cf1565b73ffffffffffffffffffffffffffffffffffffffff166108526108b4565b73ffffffffffffffffffffffffffffffffffffffff16146108a8576040517f08c379a000000000000000000000000000000000000000000000000000000000815260040161089f90611f3e565b60405180910390fd5b6108b260006110f7565b565b6000600660009054906101000a900473ffffffffffffffffffffffffffffffffffffffff16905090565b6060600180546108ed906121e3565b80601f0160208091040260200160405190810160405280929190818152602001828054610919906121e3565b80156109665780601f1061093b57610100808354040283529160200191610966565b820191906000526020600020905b81548152906001019060200180831161094957829003601f168201915b5050505050905090565b61098261097b610cf1565b83836111bd565b5050565b610997610991610cf1565b83610db2565b6109d6576040517f08c379a00000000000000000000000000000000000000000000000000000000081526004016109cd90611f9e565b60405180910390fd5b6109e28484848461132a565b50505050565b60606109f382610c85565b610a32576040517f08c379a0000000000000000000000000000000000000000000000000000000008152600401610a2990611f5e565b60405180910390fd5b6000610a3c611386565b90506000815111610a5c5760405180602001604052806000815250610a87565b80610a6684611418565b604051602001610a77929190611d36565b6040516020818303038152906040525b915050919050565b6000600560008473ffffffffffffffffffffffffffffffffffffffff1673ffffffffffffffffffffffffffffffffffffffff16815260200190815260200160002060008373ffffffffffffffffffffffffffffffffffffffff1673ffffffffffffffffffffffffffffffffffffffff16815260200190815260200160002060009054906101000a900460ff16905092915050565b610b2b610cf1565b73ffffffffffffffffffffffffffffffffffffffff16610b496108b4565b73ffffffffffffffffffffffffffffffffffffffff1614610b9f576040517f08c379a0000000000000000000000000000000000000000000000000000000008152600401610b9690611f3e565b60405180910390fd5b600073ffffffffffffffffffffffffffffffffffffffff168173ffffffffffffffffffffffffffffffffffffffff161415610c0f576040517f08c379a0000000000000000000000000000000000000000000000000000000008152600401610c0690611e1e565b60405180910390fd5b610c18816110f7565b50565b60007f01ffc9a7000000000000000000000000000000000000000000000000000000007bffffffffffffffffffffffffffffffffffffffffffffffffffffffff1916827bffffffffffffffffffffffffffffffffffffffffffffffffffffffff1916149050919050565b60008073ffffffffffffffffffffffffffffffffffffffff166002600084815260200190815260200160002060009054906101000a900473ffffffffffffffffffffffffffffffffffffffff1673ffffffffffffffffffffffffffffffffffffffff1614159050919050565b600033905090565b816004600083815260200190815260200160002060006101000a81548173ffffffffffffffffffffffffffffffffffffffff021916908373ffffffffffffffffffffffffffffffffffffffff160217905550808273ffffffffffffffffffffffffffffffffffffffff16610d6c836106c2565b73ffffffffffffffffffffffffffffffffffffffff167f8c5be1e5ebec7d5bd14f71427d1e84f3dd0314c0f7b2291e5b200ac8c7c3b92560405160405180910390a45050565b6000610dbd82610c85565b610dfc576040517f08c379a0000000000000000000000000000000000000000000000000000000008152600401610df390611e9e565b60405180910390fd5b6000610e07836106c2565b90508073ffffffffffffffffffffffffffffffffffffffff168473ffffffffffffffffffffffffffffffffffffffff161480610e7657508373ffffffffffffffffffffffffffffffffffffffff16610e5e846104a5565b73ffffffffffffffffffffffffffffffffffffffff16145b80610e875750610e868185610a8f565b5b91505092915050565b8273ffffffffffffffffffffffffffffffffffffffff16610eb0826106c2565b73ffffffffffffffffffffffffffffffffffffffff1614610f06576040517f08c379a0000000000000000000000000000000000000000000000000000000008152600401610efd90611e3e565b60405180910390fd5b600073ffffffffffffffffffffffffffffffffffffffff168273ffffffffffffffffffffffffffffffffffffffff161415610f76576040517f08c379a0000000000000000000000000000000000000000000000000000000008152600401610f6d90611e5e565b60405180910390fd5b610f818383836115c5565b610f8c600082610cf9565b6001600360008573ffffffffffffffffffffffffffffffffffffffff1673ffffffffffffffffffffffffffffffffffffffff1681526020019081526020016000206000828254610fdc91906120f9565b925050819055506001600360008473ffffffffffffffffffffffffffffffffffffffff1673ffffffffffffffffffffffffffffffffffffffff16815260200190815260200160002060008282546110339190612072565b92505081905550816002600083815260200190815260200160002060006101000a81548173ffffffffffffffffffffffffffffffffffffffff021916908373ffffffffffffffffffffffffffffffffffffffff160217905550808273ffffffffffffffffffffffffffffffffffffffff168473ffffffffffffffffffffffffffffffffffffffff167fddf252ad1be2c89b69c2b068fc378daa952ba7f163c4a11628f55a4df523b3ef60405160405180910390a46110f28383836115ca565b505050565b6000600660009054906101000a900473ffffffffffffffffffffffffffffffffffffffff16905081600660006101000a81548173ffffffffffffffffffffffffffffffffffffffff021916908373ffffffffffffffffffffffffffffffffffffffff1602179055508173ffffffffffffffffffffffffffffffffffffffff168173ffffffffffffffffffffffffffffffffffffffff167f8be0079c531659141344cd1fd0a4f28419497f9722a3daafe3b4186f6b6457e060405160405180910390a35050565b8173ffffffffffffffffffffffffffffffffffffffff168373ffffffffffffffffffffffffffffffffffffffff16141561122c576040517f08c379a000000000000000000000000000000000000000000000000000000000815260040161122390611e7e565b60405180910390fd5b80600560008573ffffffffffffffffffffffffffffffffffffffff1673ffffffffffffffffffffffffffffffffffffffff16815260200190815260200160002060008473ffffffffffffffffffffffffffffffffffffffff1673ffffffffffffffffffffffffffffffffffffffff16815260200190815260200160002060006101000a81548160ff0219169083151502179055508173ffffffffffffffffffffffffffffffffffffffff168373ffffffffffffffffffffffffffffffffffffffff167f17307eab39ab6107e8899845ad3d59bd9653f200f220920489ca2b5937696c318360405161131d9190611dc1565b60405180910390a3505050565b611335848484610e90565b611341848484846115cf565b611380576040517f08c379a000000000000000000000000000000000000000000000000000000000815260040161137790611dfe565b60405180910390fd5b50505050565b606060078054611395906121e3565b80601f01602080910402602001604051908101604052809291908181526020018280546113c1906121e3565b801561140e5780601f106113e35761010080835404028352916020019161140e565b820191906000526020600020905b8154815290600101906020018083116113f157829003601f168201915b5050505050905090565b60606000821415611460576040518060400160405280600181526020017f300000000000000000000000000000000000000000000000000000000000000081525090506115c0565b600082905060005b6000821461149257808061147b90612246565b915050600a8261148b91906120c8565b9150611468565b60008167ffffffffffffffff8111156114d4577f4e487b7100000000000000000000000000000000000000000000000000000000600052604160045260246000fd5b6040519080825280601f01601f1916602001820160405280156115065781602001600182028036833780820191505090505b5090505b600085146115b95760018261151f91906120f9565b9150600a8561152e919061228f565b603061153a9190612072565b60f81b818381518110611576577f4e487b7100000000000000000000000000000000000000000000000000000000600052603260045260246000fd5b60200101907effffffffffffffffffffffffffffffffffffffffffffffffffffffffffffff1916908160001a905350600a856115b291906120c8565b945061150a565b8093505050505b919050565b505050565b505050565b60006115f08473ffffffffffffffffffffffffffffffffffffffff16611766565b15611759578373ffffffffffffffffffffffffffffffffffffffff1663150b7a02611619610cf1565b8786866040518563ffffffff1660e01b815260040161163b9493929190611d75565b602060405180830381600087803b15801561165557600080fd5b505af192505050801561168657506040513d601f19601f820116820180604052508101906116839190611a2a565b60015b611709573d80600081146116b6576040519150601f19603f3d011682016040523d82523d6000602084013e6116bb565b606091505b50600081511415611701576040517f08c379a00000000000000000000000000000000000000000000000000000000081526004016116f890611dfe565b60405180910390fd5b805181602001fd5b63150b7a0260e01b7bffffffffffffffffffffffffffffffffffffffffffffffffffffffff1916817bffffffffffffffffffffffffffffffffffffffffffffffffffffffff19161491505061175e565b600190505b949350505050565b6000808273ffffffffffffffffffffffffffffffffffffffff163b119050919050565b600061179c61179784611ffe565b611fd9565b9050828152602081018484840111156117b457600080fd5b6117bf8482856121a1565b509392505050565b6000813590506117d681612793565b92915050565b6000813590506117eb816127aa565b92915050565b600081359050611800816127c1565b92915050565b600081519050611815816127c1565b92915050565b600082601f83011261182c57600080fd5b813561183c848260208601611789565b91505092915050565b600081359050611854816127d8565b92915050565b60006020828403121561186c57600080fd5b600061187a848285016117c7565b91505092915050565b6000806040838503121561189657600080fd5b60006118a4858286016117c7565b92505060206118b5858286016117c7565b9150509250929050565b6000806000606084860312156118d457600080fd5b60006118e2868287016117c7565b93505060206118f3868287016117c7565b925050604061190486828701611845565b9150509250925092565b6000806000806080858703121561192457600080fd5b6000611932878288016117c7565b9450506020611943878288016117c7565b935050604061195487828801611845565b925050606085013567ffffffffffffffff81111561197157600080fd5b61197d8782880161181b565b91505092959194509250565b6000806040838503121561199c57600080fd5b60006119aa858286016117c7565b92505060206119bb858286016117dc565b9150509250929050565b600080604083850312156119d857600080fd5b60006119e6858286016117c7565b92505060206119f785828601611845565b9150509250929050565b600060208284031215611a1357600080fd5b6000611a21848285016117f1565b91505092915050565b600060208284031215611a3c57600080fd5b6000611a4a84828501611806565b91505092915050565b600060208284031215611a6557600080fd5b6000611a7384828501611845565b91505092915050565b611a858161212d565b82525050565b611a948161213f565b82525050565b6000611aa58261202f565b611aaf8185612045565b9350611abf8185602086016121b0565b611ac88161237c565b840191505092915050565b6000611ade8261203a565b611ae88185612056565b9350611af88185602086016121b0565b611b018161237c565b840191505092915050565b6000611b178261203a565b611b218185612067565b9350611b318185602086016121b0565b80840191505092915050565b6000611b4a603283612056565b9150611b558261238d565b604082019050919050565b6000611b6d602683612056565b9150611b78826123dc565b604082019050919050565b6000611b90602583612056565b9150611b9b8261242b565b604082019050919050565b6000611bb3602483612056565b9150611bbe8261247a565b604082019050919050565b6000611bd6601983612056565b9150611be1826124c9565b602082019050919050565b6000611bf9602c83612056565b9150611c04826124f2565b604082019050919050565b6000611c1c603883612056565b9150611c2782612541565b604082019050919050565b6000611c3f602a83612056565b9150611c4a82612590565b604082019050919050565b6000611c62602983612056565b9150611c6d826125df565b604082019050919050565b6000611c85602c83612056565b9150611c908261262e565b604082019050919050565b6000611ca8602083612056565b9150611cb38261267d565b602082019050919050565b6000611ccb602f83612056565b9150611cd6826126a6565b604082019050919050565b6000611cee602183612056565b9150611cf9826126f5565b604082019050919050565b6000611d11603183612056565b9150611d1c82612744565b604082019050919050565b611d3081612197565b82525050565b6000611d428285611b0c565b9150611d4e8284611b0c565b91508190509392505050565b6000602082019050611d6f6000830184611a7c565b92915050565b6000608082019050611d8a6000830187611a7c565b611d976020830186611a7c565b611da46040830185611d27565b8181036060830152611db68184611a9a565b905095945050505050565b6000602082019050611dd66000830184611a8b565b92915050565b60006020820190508181036000830152611df68184611ad3565b905092915050565b60006020820190508181036000830152611e1781611b3d565b9050919050565b60006020820190508181036000830152611e3781611b60565b9050919050565b60006020820190508181036000830152611e5781611b83565b9050919050565b60006020820190508181036000830152611e7781611ba6565b9050919050565b60006020820190508181036000830152611e9781611bc9565b9050919050565b60006020820190508181036000830152611eb781611bec565b9050919050565b60006020820190508181036000830152611ed781611c0f565b9050919050565b60006020820190508181036000830152611ef781611c32565b9050919050565b60006020820190508181036000830152611f1781611c55565b9050919050565b60006020820190508181036000830152611f3781611c78565b9050919050565b60006020820190508181036000830152611f5781611c9b565b9050919050565b60006020820190508181036000830152611f7781611cbe565b9050919050565b60006020820190508181036000830152611f9781611ce1565b9050919050565b60006020820190508181036000830152611fb781611d04565b9050919050565b6000602082019050611fd36000830184611d27565b92915050565b6000611fe3611ff4565b9050611fef8282612215565b919050565b6000604051905090565b600067ffffffffffffffff8211156120195761201861234d565b5b6120228261237c565b9050602081019050919050565b600081519050919050565b600081519050919050565b600082825260208201905092915050565b600082825260208201905092915050565b600081905092915050565b600061207d82612197565b915061208883612197565b9250827fffffffffffffffffffffffffffffffffffffffffffffffffffffffffffffffff038211156120bd576120bc6122c0565b5b828201905092915050565b60006120d382612197565b91506120de83612197565b9250826120ee576120ed6122ef565b5b828204905092915050565b600061210482612197565b915061210f83612197565b925082821015612122576121216122c0565b5b828203905092915050565b600061213882612177565b9050919050565b60008115159050919050565b60007fffffffff0000000000000000000000000000000000000000000000000000000082169050919050565b600073ffffffffffffffffffffffffffffffffffffffff82169050919050565b6000819050919050565b82818337600083830152505050565b60005b838110156121ce5780820151818401526020810190506121b3565b838111156121dd576000848401525b50505050565b600060028204905060018216806121fb57607f821691505b6020821081141561220f5761220e61231e565b5b50919050565b61221e8261237c565b810181811067ffffffffffffffff8211171561223d5761223c61234d565b5b80604052505050565b600061225182612197565b91507fffffffffffffffffffffffffffffffffffffffffffffffffffffffffffffffff821415612284576122836122c0565b5b600182019050919050565b600061229a82612197565b91506122a583612197565b9250826122b5576122b46122ef565b5b828206905092915050565b7f4e487b7100000000000000000000000000000000000000000000000000000000600052601160045260246000fd5b7f4e487b7100000000000000000000000000000000000000000000000000000000600052601260045260246000fd5b7f4e487b7100000000000000000000000000000000000000000000000000000000600052602260045260246000fd5b7f4e487b7100000000000000000000000000000000000000000000000000000000600052604160045260246000fd5b6000601f19601f8301169050919050565b7f4552433732313a207472616e7366657220746f206e6f6e20455243373231526560008201527f63656976657220696d706c656d656e7465720000000000000000000000000000602082015250565b7f4f776e61626c653a206e6577206f776e657220697320746865207a65726f206160008201527f6464726573730000000000000000000000000000000000000000000000000000602082015250565b7f4552433732313a207472616e736665722066726f6d20696e636f72726563742060008201527f6f776e6572000000000000000000000000000000000000000000000000000000602082015250565b7f4552433732313a207472616e7366657220746f20746865207a65726f2061646460008201527f7265737300000000000000000000000000000000000000000000000000000000602082015250565b7f4552433732313a20617070726f766520746f2063616c6c657200000000000000600082015250565b7f4552433732313a206f70657261746f7220717565727920666f72206e6f6e657860008201527f697374656e7420746f6b656e0000000000000000000000000000000000000000602082015250565b7f4552433732313a20617070726f76652063616c6c6572206973206e6f74206f7760008201527f6e6572206e6f7220617070726f76656420666f7220616c6c0000000000000000602082015250565b7f4552433732313a2062616c616e636520717565727920666f7220746865207a6560008201527f726f206164647265737300000000000000000000000000000000000000000000602082015250565b7f4552433732313a206f776e657220717565727920666f72206e6f6e657869737460008201527f656e7420746f6b656e0000000000000000000000000000000000000000000000602082015250565b7f4552433732313a20617070726f76656420717565727920666f72206e6f6e657860008201527f697374656e7420746f6b656e0000000000000000000000000000000000000000602082015250565b7f4f776e61626c653a2063616c6c6572206973206e6f7420746865206f776e6572600082015250565b7f4552433732314d657461646174613a2055524920717565727920666f72206e6f60008201527f6e6578697374656e7420746f6b656e0000000000000000000000000000000000602082015250565b7f4552433732313a20617070726f76616c20746f2063757272656e74206f776e6560008201527f7200000000000000000000000000000000000000000000000000000000000000602082015250565b7f4552433732313a207472616e736665722063616c6c6572206973206e6f74206f60008201527f776e6572206e6f7220617070726f766564000000000000000000000000000000602082015250565b61279c8161212d565b81146127a757600080fd5b50565b6127b38161213f565b81146127be57600080fd5b50565b6127ca8161214b565b81146127d557600080fd5b50565b6127e181612197565b81146127ec57600080fd5b5056fea2646970667358221220ccc29d1af721fc8a950b21987b8c3146ebfe810ed01defbadd4d373d475912f464736f6c6343000801003368747470733a2f2f62616679626569627164683573376a646e346b6b736275796d6d6364736e6b736a36747978796b67356f7a3769373767667835626d366a7a6275792e697066732e6e667473746f726167652e6c696e6b2f6d657461646174612f",
  "immutableReferences": {},
  "source": "// SPDX-License-Identifier: MIT\npragma solidity >=0.8.1 <0.9.0;\n/**\n  @author Pedro Machado\n  @title NFT LENA FOREVER\n  @notice This smart contract NFT factory have been created to inmortalize Lena Photo. \n  this photo and the model is the most useful image in Image Processing for developer comunities. \n\n  **      ******   ****    **        ***\n  **      **       **  *   **       *   *\n  **      ******   **   *  **      *     *\n  **      **       **    * **     * *  *  *\n  ******  ******   **     ***    *         *\n\n */\n\n\nimport \"@openzeppelin/contracts/token/ERC721/ERC721.sol\";\nimport \"@openzeppelin/contracts/access/Ownable.sol\";\n\ncontract Lena is ERC721, Ownable {\n  string private baseURI;\n\n  constructor() ERC721(\"NFT LENA FOREVER\", \"LENA\") {\n    _setBaseURI(\"https://bafybeibqdh5s7jdn4kksbuymmcdsnksj6tyxykg5oz7i77gfx5bm6jzbuy.ipfs.nftstorage.link/metadata/\");\n    mintToOwner();\n  }\n\n  function mintToOwner() private returns(bool) {\n    for (uint i = 1; i <= 3; i++) {\n      _mint(owner(), i);\n    }\n\n    return true;\n  } \n\n  function _setBaseURI(string memory _BaseURI) private {\n    baseURI = _BaseURI;\n  }\n\n  function _baseURI() internal view virtual override returns (string memory) {\n        return baseURI;\n  }\n\n\n}\n",
  "sourcePath": "/home/peter/Documents/projects/nft-lena/contracts/Lena.sol",
  "compiler": {
    "name": "solc",
    "version": "0.8.1+commit.df193b15.Emscripten.clang"
  },
  "schemaVersion": "3.4.3",
  "updatedAt": "2022-03-23T11:56:07.273Z",
  "networkType": "ethereum",
  "devdoc": {
    "kind": "dev",
    "methods": {
      "approve(address,uint256)": {
        "details": "See {IERC721-approve}."
      },
      "balanceOf(address)": {
        "details": "See {IERC721-balanceOf}."
      },
      "getApproved(uint256)": {
        "details": "See {IERC721-getApproved}."
      },
      "isApprovedForAll(address,address)": {
        "details": "See {IERC721-isApprovedForAll}."
      },
      "name()": {
        "details": "See {IERC721Metadata-name}."
      },
      "owner()": {
        "details": "Returns the address of the current owner."
      },
      "ownerOf(uint256)": {
        "details": "See {IERC721-ownerOf}."
      },
      "renounceOwnership()": {
        "details": "Leaves the contract without owner. It will not be possible to call `onlyOwner` functions anymore. Can only be called by the current owner. NOTE: Renouncing ownership will leave the contract without an owner, thereby removing any functionality that is only available to the owner."
      },
      "safeTransferFrom(address,address,uint256)": {
        "details": "See {IERC721-safeTransferFrom}."
      },
      "safeTransferFrom(address,address,uint256,bytes)": {
        "details": "See {IERC721-safeTransferFrom}."
      },
      "setApprovalForAll(address,bool)": {
        "details": "See {IERC721-setApprovalForAll}."
      },
      "supportsInterface(bytes4)": {
        "details": "See {IERC165-supportsInterface}."
      },
      "symbol()": {
        "details": "See {IERC721Metadata-symbol}."
      },
      "tokenURI(uint256)": {
        "details": "See {IERC721Metadata-tokenURI}."
      },
      "transferFrom(address,address,uint256)": {
        "details": "See {IERC721-transferFrom}."
      },
      "transferOwnership(address)": {
        "details": "Transfers ownership of the contract to a new account (`newOwner`). Can only be called by the current owner."
      }
    },
    "version": 1
  },
  "userdoc": {
    "kind": "user",
    "methods": {},
    "version": 1
  }
}